:00300002CE
:003040028E
:003080024E
:0030C0020E
:00310002CD
:003140028D
:003180024D
:0031C0020D
:00320002CC
:003240028C
:003280024C
:0032C0020C
:00330002CB
:003340028B
:003380024B
:0033C0020B
:00340002CA
:003440028A
:003480024A
:0034C0020A
:00350002C9
:0035400289
:0035800249
:0035C00209
:00360002C8
:0036400288
:0036800248
:0036C00208
:00370002C7
:0037400287
:0037800247
:0037C00207
:00380002C6
:0038400286
:0038800246
:0038C00206
:00390002C5
:0039400285
:0039800245
:0039C00205
:003A0002C4
:003A400284
:003A800244
:003AC00204
:003B0002C3
:003B400283
:003B800243
:003BC00203
:003C0002C2
:003C400282
:003C800242
:083000008134A5340A34503478
:08300800441844340034003484
:08301000881804340034003478
:083018008C1810340034003460
:083020009C1815340034003443
:08302800B1188B3400340034B0
:083030003C193B34013400346B
:08303800771A4A340134003418
:08304000C11BD534013400343A
:08304800961D2C340034003405
:08305000C21D9D340034003460
:08305800FF3FFF3FFF3FFF3F78
:08306000FF3FFF3FFF3FFF3F70
:08306800FF3FFF3FFF3FFF3F68
:08307000FF3FFF3FFF3FFF3F60
:08307800FF3FFF3FFF3FFF3F58
:08308000FF3FFF3FFF3FFF3F50
:083088000434003400347034FC
:08309000043401340034313432
:0830980004340034003432342A
:0830A00004342434F4348034BC
:0830A8000434EE34023400345C
:0830B0000434EE340234033451
:0830B800043430347534063491
:0830C00004341E340034013415
:0830C80004340A340034023420
:0830D00004340A340034073413
:0830D8000134C03477340834E0
:0830E0000134C4340834083443
:0830E8000434F3340034093410
:0830F0001234083409340934DC
:0830F8000D34023400340934E8
:083100000934023400340434E8
:08310800003403340934503493
:08311000043401340034503492
:08311800043416340034C03405
:0831200004340A340034773452
:083128000434043400341834AF
:08313000043403340034503470
:083138000434F33400340834C0
:083140000134C0347734093476
:08314800023408340934093493
:0831500003340934C4340334D4
:08315800183409340334093472
:083160005034033460340434E0
:08316800033461340534043422
:08317000003400347034043413
:0831780000340034713404340A
:08318000003400347234043401
:083188000034003473340434F8
:08319000003400343034043433
:08319800003400343234043429
:0831A000003400343334043420
:0831A800003400343434043417
:0831B000003400342034043423
:0831B80000340034213404341A
:0831C000003400342234043411
:0831C800003400342334043408
:0831D0000034003451340434D2
:0831D8000034003477340434A4
:0831E0000434003418340434F7
:0831E8000034003408341234F5
:0831F0000034083408340434F3
:0831F8003034753406340D3447
:083200000234003408340834E4
:083208000934003405340034E0
:083210000434003400340934D9
:083218001234003409340934BA
:083220000434EE3402340A34D8
:083228000C34023400340934B7
:08323000003400340A340434B8
:0832380005340034093412349E
:08324000083409340934043498
:08324800013400340A340C3497
:0832500002340034093470342B
:0832580070340A34043401341F
:0832600000340A340C3402347E
:08326800003409343234323421
:083270000A3403340834503421
:08327800043400340034083472
:083280000434013400340A3467
:08328800123451340A340A34F7
:0832900004343C3400340B341B
:08329800083464340B340B34DC
:0832A0000434003400340C3446
:0832A8000434283400340D3415
:0832B00002340C340D340D341E
:0832B800093460340D340D34BB
:0832C0000F340B340D340D3402
:0832C8000434323400340B34ED
:0832D000083460340B340B34A8
:0832D8000F340D340B340B34EC
:0832E0000E340A340B340B34E8
:0832E8000434003400340A3400
:0832F000123451340A340A348F
:0832F80004343C3400340C34B2
:08330000083465340C340C3470
:083308000434003400340D34DC
:083310000434283400340E34AB
:0833180002340D340E340E34B2
:08332000093461340E340E344F
:083328000F340C340E340E3496
:083330000434323400340C3483
:08333800083461340C340C343C
:083340000F340E340C340C3480
:083348000E340A340C340C347D
:083350000434003400340A3497
:08335800123451340A340A3426
:0833600010340C340D340E345E
:083368000A340D340D34043465
:08337000003400340A340C346F
:08337800023400340D34083466
:0833800008340A340C34023455
:0833880000340D34093409344E
:083390006134043401340034FF
:083398000A34123451340A34E6
:0833A0000A3410340B340D3423
:0833A8000E340A340D340D341B
:0833B0000434763400340A34C1
:0833B8000C34023400340D3422
:0833C000083408340A340C340F
:0833C800023400340D34093415
:0833D0000934603404340234B6
:0833D80000340A3412345134B0
:0833E0000A340A340434EC3411
:0833E80000340D340C340234F2
:0833F00000340A3408340834EB
:0833F8000D340C3402340034E2
:083400000A3409340934C03418
:083408000434033400340A34DB
:08341000123451340A340A346D
:083418000434EC3400340D34DF
:083420000C34023400340A34BC
:08342800083408340D340C34A3
:08343000023400340A340934AF
:08343800093419340434043492
:0834400000340A341234513447
:083448000A340A340434003494
:0834500000340D340C34023489
:0834580000340A340834083482
:083460000D340C340234003479
:083468000A3409340934073469
:08347000033408342034053454
:08347800093415340F340B3444
:083480000C3408340334083455
:083488000A3404349E340034C0
:083490000D340C340234003449
:083498000A34153415340D341B
:0834A00004340A3400340D3439
:0834A8000C34023400340A3434
:0834B000163416340D34043407
:0834B8000A3400340D340C3419
:0834C000023400340A34173411
:0834C80017340D3403341534F0
:0834D0002134033416342234C8
:0834D8000334173423340434DB
:0834E0000634003418340434F2
:0834E8000934003450340234B1
:0834F000603404340A34043492
:0834F800053400340B340834E4
:083500000A340B340B340234D1
:08350800043460340A34043479
:08351000053400340C340834CA
:083518000A340C340C340F34AA
:083520000B340C340C340334AD
:083528000C340A340C340234A7
:0835300000340A3408340834A9
:08353800043410340C340A3491
:083540000C34023400340A349B
:083548000834083460340C342F
:08355000023400340A34043493
:083558000434603402346134D4
:0835600005340A34043405347B
:0835680000340B3408340A346E
:083570000B340B340234053466
:0835780061340A340434053407
:0835800000340D3408340A3454
:083588000D340D340F340B3437
:083590000D340D3403340D3439
:083598000A340C340234003443
:0835A0000A3409340934053432
:0835A80010340D340A340C3418
:0835B000023400340A3409342E
:0835B800093461340C340234C3
:0835C00000340A34053405341F
:0835C800613404343C3400348A
:0835D0000A34083464340A34A3
:0835D8000A340434003400340D
:0835E0000B34043428340034DC
:0835E8000C3402340B340C34E6
:0835F0000C34093408340C34DA
:0835F8000C340F340A340C34CA
:083600000C34043432340034B0
:083608000A34083408340A34C6
:083610000A340F340C340A34B3
:083618000A34043418340034B4
:083620000B340C3402340034B9
:083628000A34083408340B34A5
:0836300004343C3400340A3478
:08363800083465340A340A3439
:083640000434003400340B34A3
:083648000434283400340C3472
:0836500002340B340C340C347D
:08365800093409340C340C3470
:083660000F340A340C340C3461
:083668000434323400340A344A
:08367000083409340A340A345D
:083678000F340C340A340A344B
:083680000434183400340B344B
:083688000C34023400340A3452
:08369000093409340B34033442
:08369800C0340A34033471341C
:0836A0000B34033472340C34C6
:0836A800033473340D340434C3
:0836B000053400340E340A3425
:0836B80008340E340E3408340E
:0836C00009340A340F340E3402
:0836C8000F340E3410340334FA
:0836D0001034113404340134FC
:0836D800003412340C340234FA
:0836E000003411340B340B34EB
:0836E8001234103410341134C7
:0836F0000434003400341234EC
:0836F8000C34023400341134DB
:083700000B340B3412340434C5
:08370800003400340E341234C9
:083710000B340E340E340434B6
:08371800303475340F340C3419
:08372000023400340E340634BB
:0837280006340F3404340034B0
:0837300000340E3408340634A5
:083738000E340E340434003499
:0837400000340F340C34023494
:0837480000340E340B340B3485
:083750000F340D340234003483
:083758000B343334003400345B
:083760000134003403340B3482
:08376800713404340034003414
:0837700072340434003400340B
:083778007334043407340034FB
:0837800050340434033400341A
:083788000934123451340934F4
:08379000093410340934093436
:083798000C3402340034093442
:0837A00019341934C03410344F
:0837A8004834093403344134B4
:0837B0000A34033440340B34E9
:0837B800033451340C340434D5
:0837C000003400340D34123412
:0837C80051340D340D340434BA
:0837D000013400340E34123400
:0837D80051340E340E340434A8
:0837E000023400340F341234EE
:0837E80051340F340F34043496
:0837F0000334003410341234DC
:0837F800513410341034043484
:083800000434003411341234C9
:083808005134113411340E3467
:0838100046344734123404343D
:083818000034003413340C34B9
:083820000234003412340B34B1
:083828000B34133404340034A6
:08383000003413340C3402349F
:08383800003412340A340A3492
:0838400013340E340D34093479
:0838480012340E3412340A346C
:08385000133404340234003487
:0838580014340C340234003476
:0838600013340C340C34143451
:083868000E3412340B3413344A
:08387000043401340034143467
:083878000C3402340034133457
:083880000C340C3414340E3436
:083888000E34093413340E3430
:0838900013340B34123404342C
:083898000234003414340C3436
:0838A0000234003412340C3430
:0838A8000C3414340E34133407
:0838B0000A3412340434003420
:0838B800003414340C34023416
:0838C000003412340C340C3406
:0838C80014340E340F340934EE
:0838D00012340E3412340B34E3
:0838D800133404340034003401
:0838E00014340C3402340034EE
:0838E80013340C340C341434C9
:0838F0000E3412340A341334C3
:0838F8000434013400341434DF
:083900000C34023400341334CE
:083908000C340C3414341034AB
:08391000093413340E340F34A6
:083918001334093404340334B4
:08392000003414340C340234AD
:08392800003409340C340C34A6
:0839300014340E340D3413347D
:083938000934043404340034A6
:0839400014340C34023400348D
:0839480009340C340C34143472
:083950000E3410341334093465
:083958000334193412340E345B
:0839600009340B34143409345E
:083968001234013415340E3451
:0839700014341534153404343D
:08397800013400341434013461
:083980001234143414340C3429
:0839880002340034153412343E
:08399000123414340E34093422
:083998000A341434083412341F
:0839A000023415340E34143416
:0839A800153415340434013418
:0839B000003414340234123417
:0839B800143414340C34023401
:0839C0000034153412341234F6
:0839C8001434103413341434DC
:0839D0000E34103414341434D9
:0839D8000434023400341534FC
:0839E0000C34023400341434ED
:0839E8000C340C3415340334D7
:0839F000123419340E341134B5
:0839F8001334123403340734C8
:083A000009340E3412340B34BA
:083A0800143404340A340034C4
:083A10001534093409341534A2
:083A180015340E34143415348A
:083A20001534043401340034B4
:083A2800143401340934143494
:083A300014340C34023400349C
:083A380015340934093414347B
:083A40000E3412340A34143470
:083A4800043405340034153488
:083A5000083409341534153463
:083A58000E341434153415344A
:083A6000043401340034143475
:083A6800023409341434143453
:083A70000C340234003415345B
:083A780009340934143403344D
:083A800009340734103413343B
:083A880009340E341134093435
:083A9000093404340034003451
:083A980014340C340234003434
:083AA00009340C340C34143419
:083AA80003340C3451340434E2
:083AB000003400340934043431
:083AB800003400340A3412341A
:083AC00003340A340A34033414
:083AC8000A340B340434EE341F
:083AD00002340C340C34023402
:083AD80000340B340334033405
:083AE0000C34043408340034F6
:083AE8000934043400340034F9
:083AF0000B34123400340B34D6
:083AF8000B340434EE340234F7
:083B00000C340C3402340034D3
:083B08000B34003400340C34CE
:083B10000434043400340C34C9
:083B18000C34023400340B34BC
:083B2000093409340C340334AC
:083B2800093450340434033465
:083B3000003409341234513451
:083B380009340934103409348A
:083B400009340C340234003496
:083B48000934C034C034193403
:083B500004340434003409348C
:083B5800123451340934093420
:083B60001034093409340C345F
:083B6800023400340934773403
:083B70007734073404340534F6
:083B7800003418340434033456
:083B80000034503404342434F5
:083B8800F4340934023409345D
:083B900080340B3403340934C6
:083B9800803410344634093476
:083BA000103447340C340F34DB
:083BA80009340C340C34043420
:083BB000EE34023409340C3438
:083BB800023400340C34003427
:083BC0000034093408340B3411
:083BC800003409340434003418
:083BD00000340C340C34023403
:083BD80000340934003400340C
:083BE0000C340B340B340034EB
:083BE8000934023400340B34EF
:083BF0000C340C3402340034E3
:083BF8000934003400340C34E0
:083C00000434013400340934DE
:083C080012345134093409346F
:083C10001034093409341034AA
:083C180048340C340F34093468
:083C20000C340C340434EE34C2
:083C2800023409340C340234AB
:083C300000340C3403340334AA
:083C3800093408340B34033495
:083C400009340434003400349F
:083C48000C340C34023400348A
:083C50000934033403340C3481
:083C58000B340B340334093472
:083C6000023403340B340C3470
:083C68000C340234003409346D
:083C7000033403340C34083462
:083C78000B3406340934043456
:083C8000003400340C340C3454
:083C8800023400340934063453
:083C900006340C340B340B3434
:083C980006340934023406343D
:083CA0000B340C340C34023427
:083CA80000340934063406342F
:083CB0000C340334183409340C
:083CB800033409345034FF3FCE
:00000001FF
